:060000000A128A110C280F
:10000800FE00030EF1000A08F2000A128A110C29F8
:100018000A128A110F28F701F801F90183010A125F
:100028008A116C2801308316031788008901013072
:1000380083160313850083120313850183160313A4
:100048008801831203138801831603138601831220
:1000580003138601831603130F088F3940388F0066
:100068000F141812181583160317871519308316DD
:10007800031399009A018312031398178316031325
:10008800181398168312031318161F083F3940389F
:100098009F00831603131F129F12C330831203138A
:1000A8009F05831603139F13831203131F14043031
:1000B800F300F30B5D2860288B170B1783160313C7
:1000C8008C16831203130C13831603130C170800E2
:1000D8000A128A1116200A128A1184280D308312F6
:1000E8000313990001300A128A11E7200A128A11B3
:1000F8000D308312031399000130F6007608F907D2
:10010800790803198828892872284E307806031D33
:100118008E288F2897282A300A128A11E7200A1277
:100128008A11F901F80153307806031D9C289D288F
:10013800A92826300A128A11E7200A128A1177089C
:10014800831203138800F901F801831203139F181F
:10015800AE28AF2884289F1484280A128A110C28F4
:1001680000308A000408840A820700344434453485
:1001780053344534413420344C34453445345234B6
:10018800203445344C34203450344F3454343134D2
:10019800433449344F344D344534543452344F3455
:1001A8003F3420342834533449342F344E344F34B8
:1001B80029342C340034533449342C3400344E342C
:1001C8004F342C340034F500F401FE287408750708
:1001D80084000A128A11B4200A128A1183120313A6
:1001E80099000130F3007308F4074A30F300F30B69
:1001F800FB28FE287408750784000A128A11B420A7
:100208000A128A112C3A031D0A290B29EA28080028
:10021800831203131F0CF000700C0F39003A031DF2
:10022800162917291C291E08F0007008F7000C135E
:100238008C1E1F29202924291A08F0007008F800AC
:0E02480072088A00710E8300FE0E7E0E090001
:08400000FF3FFF3FFF3FFF3FC0
:04400E00D420FF3F7C
:00000001FF
